{
  "contractName": "Account",
  "abi": [
    {
      "inputs": [],
      "payable": false,
      "stateMutability": "nonpayable",
      "type": "constructor",
      "signature": "constructor"
    },
    {
      "anonymous": false,
      "inputs": [
        {
          "indexed": true,
          "name": "hashedName",
          "type": "bytes32"
        },
        {
          "indexed": false,
          "name": "name",
          "type": "string"
        },
        {
          "indexed": false,
          "name": "owner",
          "type": "address"
        },
        {
          "indexed": false,
          "name": "publicPgpKey",
          "type": "string"
        }
      ],
      "name": "newAccountEvent",
      "type": "event",
      "signature": "0xcc1549b09d70508ba8645fb3a252f979f6a3add45f98e30b8ff30bedf94d79e8"
    },
    {
      "constant": false,
      "inputs": [
        {
          "name": "_name",
          "type": "string"
        },
        {
          "name": "_publicPgpKey",
          "type": "string"
        }
      ],
      "name": "register",
      "outputs": [
        {
          "name": "success",
          "type": "bool"
        }
      ],
      "payable": false,
      "stateMutability": "nonpayable",
      "type": "function",
      "signature": "0x3ffbd47f"
    },
    {
      "constant": true,
      "inputs": [
        {
          "name": "_owner",
          "type": "address"
        }
      ],
      "name": "existsAccount",
      "outputs": [
        {
          "name": "",
          "type": "bool"
        }
      ],
      "payable": false,
      "stateMutability": "view",
      "type": "function",
      "signature": "0x0feb4b0b"
    }
  ],
  "bytecode": "0x608060405234801561001057600080fd5b506103d0806100206000396000f3fe60806040526004361061004b5763ffffffff7c01000000000000000000000000000000000000000000000000000000006000350416630feb4b0b81146100505780633ffbd47f146100a4575b600080fd5b34801561005c57600080fd5b506100906004803603602081101561007357600080fd5b503573ffffffffffffffffffffffffffffffffffffffff166101de565b604080519115158252519081900360200190f35b3480156100b057600080fd5b50610090600480360360408110156100c757600080fd5b8101906020810181356401000000008111156100e257600080fd5b8201836020820111156100f457600080fd5b8035906020019184600183028401116401000000008311171561011657600080fd5b91908080601f016020809104026020016040519081016040528093929190818152602001838380828437600092019190915250929594936020810193503591505064010000000081111561016957600080fd5b82018360208201111561017b57600080fd5b8035906020019184600183028401116401000000008311171561019d57600080fd5b91908080601f01602080910402602001604051908101604052809392919081815260200183838082843760009201919091525092955061021a945050505050565b73ffffffffffffffffffffffffffffffffffffffff811660009081526020819052604081205460ff16151561021257600080fd5b506001919050565b815160208084019190912033600090815291829052604082205460ff161561024157600080fd5b60008181526001602052604090205460ff161561025d57600080fd5b336000818152602081815260408083208054600160ff1991821681179092558685528184528285208054909116909117905580518083018590526060808252895190820152885186957fcc1549b09d70508ba8645fb3a252f979f6a3add45f98e30b8ff30bedf94d79e8958b9591948b94938493918401926080850192890191908190849084905b838110156102fd5781810151838201526020016102e5565b50505050905090810190601f16801561032a5780820380516001836020036101000a031916815260200191505b50838103825284518152845160209182019186019080838360005b8381101561035d578181015183820152602001610345565b50505050905090810190601f16801561038a5780820380516001836020036101000a031916815260200191505b509550505050505060405180910390a2506001939250505056fea165627a7a7230582010e01c7202ee1c0fb0a663a6473ad35677ae21738ea457f0f9bf029db5d384160029",
  "source": "pragma solidity >=0.4.22 <0.6.0;\n\ncontract Account {\n    mapping(address => bool) existsAddress;\n    mapping(bytes32 => bool) existsName;\n\n    event newAccountEvent (\n        bytes32 indexed hashedName,\n        string name,\n        address owner,\n        string  publicPgpKey\n    );\n\n    constructor () public {}\n\n    function register(string memory _name, string memory _publicPgpKey) public returns (bool success) {\n        bytes32 hashedName = keccak256(bytes(_name));\n\n        require(!existsAddress[msg.sender]);\n        require(!existsName[hashedName]);\n\n        existsAddress[msg.sender] = true;\n        existsName[hashedName] = true;\n\n        emit newAccountEvent(\n            hashedName,\n            _name,\n            msg.sender,\n            _publicPgpKey\n        );\n\n        return true;\n    }\n\n    function existsAccount(address _owner) public view returns (bool) {\n        require(existsAddress[_owner]);\n\n        return true;\n    }\n}\n\n",
  "sourcePath": "/home/jochen/WebstormProjects/sesamed/eth/contracts/sesamed/Account.sol",
  "compiler": {
    "name": "solc",
    "version": "0.5.0+commit.1d4f565a.Emscripten.clang"
  },
  "schemaVersion": "3.0.2",
  "updatedAt": "2019-02-17T21:34:23.629Z",
  "devdoc": {
    "methods": {}
  },
  "userdoc": {
    "methods": {}
  }
}