{
  "contractName": "Channel",
  "abi": [
    {
      "inputs": [
        {
          "name": "_accountContractAddress",
          "type": "address"
        }
      ],
      "payable": false,
      "stateMutability": "nonpayable",
      "type": "constructor",
      "signature": "constructor"
    },
    {
      "anonymous": false,
      "inputs": [
        {
          "indexed": true,
          "name": "owner",
          "type": "address"
        },
        {
          "indexed": false,
          "name": "channelId",
          "type": "bytes32"
        },
        {
          "indexed": false,
          "name": "ciphertext",
          "type": "string"
        }
      ],
      "name": "newChannelEvent",
      "type": "event",
      "signature": "0x7805676ed004c223313d995208f05f68a3c1c6635542a7271cb416e6c65e6424"
    },
    {
      "constant": false,
      "inputs": [
        {
          "name": "_channelId",
          "type": "bytes32"
        },
        {
          "name": "_ciphertext",
          "type": "string"
        }
      ],
      "name": "createChannel",
      "outputs": [
        {
          "name": "",
          "type": "bool"
        }
      ],
      "payable": false,
      "stateMutability": "nonpayable",
      "type": "function",
      "signature": "0x04b7ea96"
    },
    {
      "constant": true,
      "inputs": [
        {
          "name": "_channelId",
          "type": "bytes32"
        }
      ],
      "name": "existsChannel",
      "outputs": [
        {
          "name": "",
          "type": "bool"
        }
      ],
      "payable": false,
      "stateMutability": "view",
      "type": "function",
      "signature": "0xda314caf"
    },
    {
      "constant": true,
      "inputs": [
        {
          "name": "_channelId",
          "type": "bytes32"
        }
      ],
      "name": "getChannelOwner",
      "outputs": [
        {
          "name": "",
          "type": "address"
        }
      ],
      "payable": false,
      "stateMutability": "view",
      "type": "function",
      "signature": "0xaba60a70"
    }
  ],
  "bytecode": "0x608060405234801561001057600080fd5b506040516020806104be8339810180604052602081101561003057600080fd5b505160008054600160a060020a03909216600160a060020a031990921691909117905561045c806100626000396000f3fe6080604052600436106100565763ffffffff7c010000000000000000000000000000000000000000000000000000000060003504166304b7ea96811461005b578063aba60a7014610129578063da314caf1461017c575b600080fd5b34801561006757600080fd5b506101156004803603604081101561007e57600080fd5b813591908101906040810160208201356401000000008111156100a057600080fd5b8201836020820111156100b257600080fd5b803590602001918460018302840111640100000000831117156100d457600080fd5b91908080601f0160208091040260200160405190810160405280939291908181526020018383808284376000920191909152509295506101a6945050505050565b604080519115158252519081900360200190f35b34801561013557600080fd5b506101536004803603602081101561014c57600080fd5b50356103c4565b6040805173ffffffffffffffffffffffffffffffffffffffff9092168252519081900360200190f35b34801561018857600080fd5b506101156004803603602081101561019f57600080fd5b50356103ec565b60008054604080517f0feb4b0b000000000000000000000000000000000000000000000000000000008152336004820152905173ffffffffffffffffffffffffffffffffffffffff90921691630feb4b0b91602480820192602092909190829003018186803b15801561021857600080fd5b505afa15801561022c573d6000803e3d6000fd5b505050506040513d602081101561024257600080fd5b5051151561024f57600080fd5b60008381526001602052604090205474010000000000000000000000000000000000000000900460ff161561028357600080fd5b61028b610419565b3380825260016020808401828152600088815292825260408084208651815493511515740100000000000000000000000000000000000000000274ff00000000000000000000000000000000000000001973ffffffffffffffffffffffffffffffffffffffff9290921673ffffffffffffffffffffffffffffffffffffffff19909516949094171692909217909155805188815280830182815288519282019290925287517f7805676ed004c223313d995208f05f68a3c1c6635542a7271cb416e6c65e6424948a948a94926060850192918601918190849084905b8381101561037f578181015183820152602001610367565b50505050905090810190601f1680156103ac5780820380516001836020036101000a031916815260200191505b50935050505060405180910390a25060019392505050565b60009081526001602052604090205473ffffffffffffffffffffffffffffffffffffffff1690565b60009081526001602052604090205474010000000000000000000000000000000000000000900460ff1690565b60408051808201909152600080825260208201529056fea165627a7a72305820ae2c8b4fb80def7d45b44762181141598ddd44fdef19c92aa32d727ea2d899dd0029",
  "source": "pragma solidity >=0.4.22 <0.6.0;\n\ncontract AccountContract {\n    function existsAccount(address _owner) public view returns (bool);\n}\n\ncontract Channel {\n    AccountContract accountContract;\n\n    constructor (address _accountContractAddress) public {\n        accountContract = AccountContract(_accountContractAddress);\n    }\n\n    struct channelStruct {\n        address owner;\n        bool exists;\n    }\n\n    mapping(bytes32 => channelStruct) channel;\n\n\n    event newChannelEvent (\n        address indexed owner,\n        bytes32 channelId,\n        string ciphertext\n    );\n\n    function createChannel(bytes32 _channelId, string memory _ciphertext) public returns (bool) {\n        require(accountContract.existsAccount(msg.sender));\n        require(!channel[_channelId].exists);\n\n        channelStruct memory newChannel;\n        newChannel.owner = msg.sender;\n        newChannel.exists = true;\n        channel[_channelId] = newChannel;\n\n        emit newChannelEvent(\n            msg.sender,\n            _channelId,\n            _ciphertext\n        );\n\n        return true;\n    }\n\n    function existsChannel(bytes32 _channelId) public view returns (bool) {\n        return channel[_channelId].exists;\n    }\n\n    function getChannelOwner(bytes32 _channelId) public view returns (address) {\n        return channel[_channelId].owner;\n    }\n}\n\n",
  "sourcePath": "/home/jochen/WebstormProjects/sesamed/eth/contracts/sesamed/Channel.sol",
  "compiler": {
    "name": "solc",
    "version": "0.5.0+commit.1d4f565a.Emscripten.clang"
  },
  "schemaVersion": "3.0.2",
  "updatedAt": "2019-02-17T21:34:23.631Z",
  "devdoc": {
    "methods": {}
  },
  "userdoc": {
    "methods": {}
  }
}