{
  "contractName": "Document",
  "abi": [
    {
      "inputs": [
        {
          "name": "_channelContractAddress",
          "type": "address"
        }
      ],
      "payable": false,
      "stateMutability": "nonpayable",
      "type": "constructor",
      "signature": "constructor"
    },
    {
      "anonymous": false,
      "inputs": [
        {
          "indexed": true,
          "name": "channelId",
          "type": "bytes32"
        },
        {
          "indexed": false,
          "name": "hash",
          "type": "bytes32"
        },
        {
          "indexed": false,
          "name": "ipfsHash",
          "type": "string"
        }
      ],
      "name": "newDocumentEvent",
      "type": "event",
      "signature": "0xb420280e33ea0cc9d513dd1e8d2c80fa5d167e96058bee178e3bd569b22ceb97"
    },
    {
      "constant": false,
      "inputs": [
        {
          "name": "_channelId",
          "type": "bytes32"
        },
        {
          "name": "_hash",
          "type": "bytes32"
        },
        {
          "name": "_ipfsHash",
          "type": "string"
        }
      ],
      "name": "sendDocument",
      "outputs": [
        {
          "name": "sucess",
          "type": "bool"
        }
      ],
      "payable": false,
      "stateMutability": "nonpayable",
      "type": "function",
      "signature": "0xb24dcb80"
    }
  ],
  "bytecode": "0x608060405234801561001057600080fd5b506040516020806103108339810180604052602081101561003057600080fd5b505160008054600160a060020a03909216600160a060020a03199092169190911790556102ae806100626000396000f3fe6080604052600436106100405763ffffffff7c0100000000000000000000000000000000000000000000000000000000600035041663b24dcb808114610045575b600080fd5b34801561005157600080fd5b506101046004803603606081101561006857600080fd5b81359160208101359181019060608101604082013564010000000081111561008f57600080fd5b8201836020820111156100a157600080fd5b803590602001918460018302840111640100000000831117156100c357600080fd5b91908080601f016020809104026020016040519081016040528093929190818152602001838380828437600092019190915250929550610118945050505050565b604080519115158252519081900360200190f35b60008054604080517faba60a70000000000000000000000000000000000000000000000000000000008152600481018790529051339273ffffffffffffffffffffffffffffffffffffffff169163aba60a70916024808301926020929190829003018186803b15801561018a57600080fd5b505afa15801561019e573d6000803e3d6000fd5b505050506040513d60208110156101b457600080fd5b505173ffffffffffffffffffffffffffffffffffffffff16146101d657600080fd5b837fb420280e33ea0cc9d513dd1e8d2c80fa5d167e96058bee178e3bd569b22ceb9784846040518083815260200180602001828103825283818151815260200191508051906020019080838360005b8381101561023d578181015183820152602001610225565b50505050905090810190601f16801561026a5780820380516001836020036101000a031916815260200191505b50935050505060405180910390a2506001939250505056fea165627a7a723058206c6a29a1621a1012de4560f234d0e103bc85742c1c5d84c2f6ba7883f23c8c2d0029",
  "source": "pragma solidity >=0.4.22 <0.6.0;\n\ncontract ChannelContract {\n    function existsChannel(bytes32 _channelId) public view returns (bool);\n    function getChannelOwner(bytes32 _channelId) public view returns (address);\n}\n\ncontract Document {\n    ChannelContract channelContract;\n\n    constructor (address _channelContractAddress) public {\n        channelContract = ChannelContract(_channelContractAddress);\n    }\n\n    event newDocumentEvent (\n        bytes32 indexed channelId,\n        bytes32 hash,\n        string ipfsHash\n    );\n\n    function sendDocument(bytes32 _channelId, bytes32 _hash, string memory _ipfsHash) public returns (bool sucess) {\n        require(channelContract.getChannelOwner(_channelId) == msg.sender);\n\n        emit newDocumentEvent (\n            _channelId,\n            _hash,\n            _ipfsHash\n        );\n\n        return true;\n    }\n}\n\n",
  "sourcePath": "/home/jochen/WebstormProjects/sesamed/eth/contracts/sesamed/Document.sol",
  "compiler": {
    "name": "solc",
    "version": "0.5.0+commit.1d4f565a.Emscripten.clang"
  },
  "schemaVersion": "3.0.2",
  "updatedAt": "2019-02-17T21:34:23.627Z",
  "devdoc": {
    "methods": {}
  },
  "userdoc": {
    "methods": {}
  }
}